:060000000A128A11AD2F67
:100F5A0083010A128A11B12F831603138601033003
:100F6A00831203138600B92F0230831203138600FB
:100F7A000B30F2002630F1006630F000F00BC32F80
:100F8A00F10BC32FF20BC32FCA2F8312031386014F
:100F9A000B30F2002630F1006630F000F00BD32F50
:100FAA00F10BD32FF20BD32FDA2F04308312031352
:100FBA0086000B30F2002630F1006630F000F00BAC
:100FCA00E42FF10BE42FF20BE42FEB2F8312031320
:100FDA0086010B30F2002630F1006630F000F00B8B
:100FEA00F42FF10BF42FF20BF42FFB2FB92FB92F9B
:060FFA000A128A11002812
:00000001FF
