:060000000A128A11802F94
:100F000083010A128A11932F4130831203139F0029
:100F1000C030831603139F00C530F00070088312A1
:100F200003139F0508008316031386018701FF3012
:100F300085000A128A1184270A128A119F2F003015
:100F40000A128A11C2270A128A117108F901F907D7
:100F50007008F801F80778088312031386007908EF
:100F600087000230F7000430F600BA30F500F50BC8
:100F7000B72FF60BB72FF70BB72F64009F2F0A126E
:100F80008A110028F40008307402031CC82FC92FEE
:100F9000CD2FF001F101FF2FFF2F7408F200023076
:100FA0000310F20DFF3E031DD02F0310720DF3004E
:100FB0007308831203139F040630F3003030F200ED
:100FC000F20BE02FF30BE02F6400831203131F15C5
:100FD000E92F1F19EC2FED2FE92FEE2F1E08F2003D
:100FE000F3017208F300F201831603131E0872075F
:100FF000F0000030031801307307F100FF2F0800E4
:00000001FF
